:100000000C9434000C9449000C9449000C94490061
:100010000C9449000C9449000C9449000C9449003C
:100020000C9449000C9449000C9449000C9449002C
:100030000C9449000C9449000C9449000C9449001C
:100040000C9449000C9449000C944B000C9449000A
:100050000C9449000C9449000C9449000C944900FC
:100060000C9449000C94490011241FBECFEFD8E036
:10007000DEBFCDBF11E0A0E0B1E0E0E4F1E002C0FE
:1000800005900D92A230B107D9F70E9461000C943F
:100090009E000C9400001F920F920FB60F92112435
:1000A0008F939F932E9A8091C60090E090930101C8
:1000B000809300019F918F910F900FBE0F901F9022
:1000C0001895279A559A569A219A229A5398579892
:1000D000529820982F981092C5008CE08093C4000D
:1000E00088E98093C10086E08093C200269A7894C4
:1000F0002E9880910001909101018130910519F4B1
:100100005D985E98F5CF8230910519F45D985E9AFE
:10011000EFCF8330910511F45D9AF3CF84309105D0
:1001200019F429982A98E4CF8530910519F4299873
:100130002A9ADECF0697E1F6299AF4CFF894FFCFFA
:02014000FFFFBF
:00000001FF
