:020000040000FA
:100000000C9434000C9451000C9451000C94510049
:100010000C9451000C9451000C9451000C9451001C
:100020000C9451000C9451000C9451000C9451000C
:100030000C9451000C9451000C9451000C945100FC
:100040000C9451000C9451000C9413010C94510029
:100050000C9451000C9451000C9451000C945100DC
:100060000C9451000C94510011241FBECFEFD8E026
:10007000DEBFCDBF21E0A6E1B1E001C01D92AC34EE
:10008000B207E1F711E0A0E0B1E0E0E0FEE002C07D
:1000900005900D92A631B107D9F70E9446010C9444
:1000A000FE060C940000E0E8F0E080818F7C808305
:1000B00080818F73808384B58F7C84BD84B58F737A
:1000C00084BD5D985E9829982A980895CF92DF9212
:1000D000EF92FF92CF93C82F70E090E080E00E94F3
:1000E0008C046B017C0120E030E048EC52E40E947B
:1000F0001A05181634F4C12CD12C88ECE82E82E4B1
:10010000F82E20E030E048EC52E4C701B6010E942E
:10011000EB0320E030E04FE753E40E941F050E940C
:100120005D046F3F710519F010F06FEF70E0C130A2
:10013000A9F4809180008068809380008091800085
:100140008F7C8093800070938900609388002A9848
:10015000CF91FF90EF90DF90CF900895C111F8CF2D
:10016000809180008F7380938000809180008062F6
:100170008093800070938B0060938A002998E8CF69
:10018000CF92DF92EF92FF92CF93C82F70E090E072
:1001900080E00E948C046B017C0120E030E048ECA0
:1001A00052E40E941A05181634F4C12CD12C88ECA4
:1001B000E82E82E4F82E20E030E048EC52E4C7015B
:1001C000B6010E94EB0320E030E04FE753E40E94C9
:1001D0001F050E945D046F3F710519F010F06FEF6D
:1001E00070E0C13071F484B58F7C84BD84B58068C3
:1001F00084BD67BD5D98CF91FF90EF90DF90CF9069
:100200000895C111F8CF84B5806284BD84B58F7321
:1002100084BD68BD5E98EFCF9091C00095FFFCCF84
:100220008093C60008951F920F920FB60F9211246B
:100230008F93EF93FF9381E0809321018091C6001B
:10024000E0912201F0E0E85DFE4F80838091220181
:100250008F5F80932201E0912201F0E0E85DFE4F84
:100260008AE08083E0912201F0E0E85DFE4F118298
:10027000809122018C3110F010922201FF91EF91B8
:100280008F910F900FBE0F901F901895CF93DF9313
:1002900000D0CDB7DEB7279A559A569A219A229A5E
:1002A00053985798529820982F988FEF90E09093FA
:1002B00087008093860084B5836084BD8091800030
:1002C00081608093800085B5826085BD80918100CA
:1002D0008A60809381001092C5008CE08093C400F6
:1002E00088E98093C10086E08093C200269A7894C2
:1002F000E8E2F1E08DE1DF011D928A95E9F7DD2466
:10030000DA948DE1C82E77247394AA24A394B12C97
:1003100061E171E088E291E00E94E406892B79F0C6
:100320002E98E8E2F1E0DF018C2D1D928A95E9F725
:10033000109224011092230110922201E9CF8091A2
:10034000230190912401892B71F46CE071E088E223
:1003500091E00E94E406892B31F02E9AB09224019C
:10036000A0922301D5CF8091230190912401892B64
:1003700079F267E071E088E291E00E94E4067C0196
:10038000892B31F26CE071E088E291E00E94E40692
:1003900002964C01E81AF90AC70102960E94B005BC
:1003A0008C01A701B4010E94D506F801EE0DFF1DD6
:1003B0001082E8E2F1E0DF018C2D1D928A95E9F7C9
:1003C00070922501109224011092230110922201B3
:1003D0000115110509F49CCFD8018C91809300017F
:1003E00011968C91809327014AE050E0BE016F5F27
:1003F0007F4FC80102960E94450260932601F12CAE
:10040000F801EF0DF11DF7FCFA958081811124C0F0
:10041000C8010E944C0680912701863409F1809121
:100420002701823501F10E945300809100018C3434
:1004300001F18235D1F0813429F50E940C016091DF
:1004400026018D2D0E94C000609126018D2D0E94F5
:100450006600109225015CCF0E940C01F394D0CF6E
:10046000DD24D394E2CFD12CE0CF82E50E940C01B1
:10047000EBCF8CE40E940C01609126018D2D0E942F
:10048000C000E7CF0E945300E4CFB0E0A0E0EBE46F
:10049000F2E00C94A6035C016B017A016115710511
:1004A00019F0FB0191838083E114F10451F0C7013D
:1004B0000297839730F040E030E020E090E072C097
:1004C0005E01E5012196F5011081812F90E00E94E7
:1004D0005C03892BA9F71D3201F52196F5011181E5
:1004E00001E0E114F10409F4DAC0F0E1EF16F104DF
:1004F00009F082C0103359F488818F7D883509F066
:1005000076C0198122960260F0E1EF2EF12C812C49
:10051000912CA12C88E0B82E8CC01B3221F4E5016F
:100520002296F501118100E0DCCFEAE0EE16F1043D
:1005300009F4BBC0F0E1EF16F10409F06DC0E7CF9C
:1005400078E0E72EF12C812C912CA12C60E1B62EC5
:1005500070C03FE9310F3A3128F439EA332E80C0B8
:1005600021E09AC0302F3170C114D10431F0222320
:1005700009F12197F601D183C08327FF21C060E0F4
:1005800070E080E090E8311104C06FEF7FEF8FEFF3
:100590009FE722E230E03093470120934601462F47
:1005A000372F282F642F732F822FCDB7DEB7E1E1CD
:1005B0000C94C20301FF04C02297F601D183C083CB
:1005C000332341F090958095709561957F4F8F4FC3
:1005D0009F4FE5CF97FFE3CF82E290E090934701F2
:1005E000809346016FEF7FEF8FEF9FE7D8CF10E347
:1005F000E114F10409F4A4CF28E0E216F10409F4AF
:10060000A2CF0CF092CF812C912CA12CE0E4BE2E35
:1006100082E0E816F10469F060E070E080E090E8C4
:1006200097010F2C000C440B550B0E9478034901D5
:100630005A0120E060E070E0CB0127010F2C000C94
:1006400066087708FE0150ED352E310E39E033157E
:1006500040F43FEB310F3A3108F07BCF49EC342EB8
:10066000310E3E141F040CF07DCF27FD15C08616F9
:100670009706A806B90678F0A30192010E946803C4
:10068000630D711D811D911D61307105810520E88B
:10069000920708F465CF2FEF21961081D3CF103346
:1006A00009F42ACF2AE0E22EF12C9CEC892E982C1A
:1006B000A82C9CE0B92EBDCF91110C94650380321B
:1006C00019F089508550C8F708959927882708950B
:1006D000DB018F939F930E949A03BF91AF91A29FDA
:1006E000800D911DA39F900DB29F900D1124089530
:1006F000A1E21A2EAA1BBB1BFD010DC0AA1FBB1F26
:10070000EE1FFF1FA217B307E407F50720F0A21B97
:10071000B30BE40BF50B661F771F881F991F1A9404
:1007200069F760957095809590959B01AC01BD012E
:10073000CF0108950E94DC03A59F900DB49F900DFA
:10074000A49F800D911D112408952F923F924F92E6
:100750005F926F927F928F929F92AF92BF92CF9251
:10076000DF92EF92FF920F931F93CF93DF93CDB75A
:10077000DEB7CA1BDB0B0FB6F894DEBF0FBECDBFD2
:1007800009942A88398848885F846E847D848C84A3
:100790009B84AA84B984C884DF80EE80FD800C81AC
:1007A0001B81AA81B981CE0FD11D0FB6F894DEBF8F
:1007B0000FBECDBFED010895A29FB001B39FC00150
:1007C000A39F700D811D1124911DB29F700D811D7D
:1007D0001124911D08950E94FF030C94E0040E94CF
:1007E000D90458F00E94D20440F029F45F3F29F068
:1007F0000C94C90451110C9414050C94CF040E945C
:10080000F10468F39923B1F3552391F3951B550B2C
:10081000BB27AA2762177307840738F09F5F5F4FD3
:10082000220F331F441FAA1FA9F335D00E2E3AF012
:10083000E0E832D091505040E695001CCAF72BD02A
:10084000FE2F29D0660F771F881FBB1F261737077B
:100850004807AB07B0E809F0BB0B802DBF01FF27AD
:1008600093585F4F3AF09E3F510578F00C94C904BD
:100870000C9414055F3FE4F3983ED4F38695779586
:100880006795B795F7959F5FC9F7880F911D969566
:10089000879597F90895E1E0660F771F881FBB1FC2
:1008A000621773078407BA0720F0621B730B840B6F
:1008B000BA0BEE1F88F7E09508950E94F90488F0BE
:1008C0009F5798F0B92F9927B751B0F0E1F0660F14
:1008D000771F881F991F1AF0BA95C9F714C0B13055
:1008E00091F00E941305B1E008950C941305672F51
:1008F000782F8827B85F39F0B93FCCF38695779584
:100900006795B395D9F73EF490958095709561956C
:100910007F4F8F4F9F4F0895E89409C097FB3EF497
:1009200090958095709561957F4F8F4F9F4F99233C
:10093000A9F0F92F96E9BB279395F69587957795BA
:100940006795B795F111F8CFFAF4BB0F11F460FF7A
:100950001BC06F5F7F4F8F4F9F4F16C0882311F0D2
:1009600096E911C0772321F09EE8872F762F05C0E6
:10097000662371F096E8862F70E060E02AF09A9581
:10098000660F771F881FDAF7880F9695879597F976
:10099000089597F99F6780E870E060E008959FEF01
:1009A00080EC089500240A94161617061806090606
:1009B000089500240A9412161306140605060895D5
:1009C000092E0394000C11F4882352F0BB0F40F45D
:1009D000BF2B11F460FF04C06F5F7F4F8F4F9F4F9D
:1009E000089557FD9058440F551F59F05F3F71F01F
:1009F0004795880F97FB991F61F09F3F79F0879586
:100A00000895121613061406551FF2CF4695F1DF0E
:100A100008C0161617061806991FF1CF869571059E
:100A2000610508940895E894BB2766277727CB01D2
:100A300097F908950E948C0508F48FEF08950E949D
:100A400032050C94E0040E94D20438F00E94D904CC
:100A500020F0952311F00C94C9040C94CF041124B8
:100A60000C9414050E94F10470F3959FC1F3950F47
:100A700050E0551F629FF001729FBB27F00DB11D22
:100A8000639FAA27F00DB11DAA1F649F6627B00DB2
:100A9000A11D661F829F2227B00DA11D621F739F9B
:100AA000B00DA11D621F839FA00D611D221F749FA9
:100AB0003327A00D611D231F849F600D211D822FF0
:100AC000762F6A2F11249F5750409AF0F1F0882317
:100AD0004AF0EE0FFF1FBB1F661F771F881F915044
:100AE0005040A9F79E3F510580F00C94C9040C9426
:100AF00014055F3FE4F3983ED4F3869577956795A8
:100B0000B795F795E7959F5FC1F7FE2B880F911D6D
:100B10009695879597F90895990F0008550FAA0B98
:100B2000E0E8FEEF16161706E807F907C0F0121600
:100B30001306E407F50798F0621B730B840B950B03
:100B400039F40A2661F0232B242B252B21F4089558
:100B50000A2609F4A140A6958FEF811D811D0895F5
:100B60000F931F93CF93DF938230910510F482E0AF
:100B700090E0E0914A01F0914B0130E020E0B0E0DC
:100B8000A0E0309799F42115310509F44AC0281BDB
:100B9000390B24303105D8F58A819B8161157105A7
:100BA00089F1FB0193838283FE0111C04081518151
:100BB0000281138148175907E0F04817590799F443
:100BC000109761F012960C93129713961C9332961D
:100BD000CF01DF91CF911F910F91089500934A01AA
:100BE00010934B01F4CF2115310551F042175307F3
:100BF00038F0A901DB019A01BD01DF01F801C1CF85
:100C0000EF01F9CF90934B0180934A01CDCFFE01C4
:100C1000E20FF31F81939193225031093983288386
:100C2000D7CF2091480130914901232B41F42091E5
:100C30000301309104013093490120934801209130
:100C40000101309102012115310541F42DB73EB764
:100C50004091050150910601241B350BE09148019C
:100C6000F0914901E217F307A0F42E1B3F0B281760
:100C7000390778F0AC014E5F5F4F2417350748F015
:100C80004E0F5F1F50934901409348018193919308
:100C90009FCFF0E0E0E09CCFCF93DF930097E9F0A7
:100CA000FC01329713821282A0914A01B0914B014C
:100CB000ED0130E020E01097A1F420813181820F16
:100CC000931F20914801309149012817390709F0F5
:100CD00061C0F0934901E0934801DF91CF910895FD
:100CE000EA01CE17DF07E8F54A815B819E014115D5
:100CF0005105B1F7E901FB83EA8349915991C40F8A
:100D0000D51FEC17FD0761F4808191810296840F55
:100D1000951FE90199838883828193819B838A83CC
:100D2000F0E0E0E012968D919C9113970097B9F551
:100D30002D913C911197CD010296820F931F209126
:100D40004801309149012817390739F6309751F594
:100D500010924B0110924A01B0934901A0934801AF
:100D6000BCCFD383C28340815181840F951FC817A4
:100D7000D90761F44E5F5F4F88819981480F591FF1
:100D8000518340838A819B8193838283211531051E
:100D900009F0B0CFF0934B01E0934A019ECFFD01E3
:100DA000DC01C0CF13821282D7CFFB01DC0141509E
:100DB000504048F001900D920020C9F701C01D92EB
:100DC00041505040E0F70895FB0151915523A9F09F
:100DD000BF01DC014D9145174111E1F759F4CD01F7
:100DE0000190002049F04D9140154111C9F3FB01DC
:100DF0004111EFCF81E090E001970895F894FFCF83
:100E00004D00004C01800029290000002828000026
:060E1000002F2F0000007E
:107E0000112484B714BE81FFF0D085E080938100F7
:107E100082E08093C00088E18093C10086E0809377
:107E2000C20080E18093C4008EE0C9D0259A86E02C
:107E300020E33CEF91E0309385002093840096BBD3
:107E4000B09BFECF1D9AA8958150A9F7CC24DD24C4
:107E500088248394B5E0AB2EA1E19A2EF3E0BF2EE7
:107E6000A2D0813461F49FD0082FAFD0023811F036
:107E7000013811F484E001C083E08DD089C08234E0
:107E800011F484E103C0853419F485E0A6D080C0E4
:107E9000853579F488D0E82EFF2485D0082F10E0AE
:107EA000102F00270E291F29000F111F8ED06801E7
:107EB0006FC0863521F484E090D080E0DECF843638
:107EC00009F040C070D06FD0082F6DD080E0C81688
:107ED00080E7D80618F4F601B7BEE895C0E0D1E017
:107EE00062D089930C17E1F7F0E0CF16F0E7DF06D8
:107EF00018F0F601B7BEE89568D007B600FCFDCFD4
:107F0000A601A0E0B1E02C9130E011968C91119780
:107F100090E0982F8827822B932B1296FA010C0160
:107F200087BEE89511244E5F5F4FF1E0A038BF0790
:107F300051F7F601A7BEE89507B600FCFDCF97BE46
:107F4000E89526C08437B1F42ED02DD0F82E2BD052
:107F50003CD0F601EF2C8F010F5F1F4F84911BD097
:107F6000EA94F801C1F70894C11CD11CFA94CF0C13
:107F7000D11C0EC0853739F428D08EE10CD085E9AC
:107F80000AD08FE07ACF813511F488E018D01DD067
:107F900080E101D065CF982F8091C00085FFFCCF94
:107FA0009093C60008958091C00087FFFCCF809118
:107FB000C00084FD01C0A8958091C6000895E0E648
:107FC000F0E098E1908380830895EDDF803219F02E
:107FD00088E0F5DFFFCF84E1DECF1F93182FE3DFCA
:107FE0001150E9F7F2DF1F91089580E0E8DFEE27F6
:047FF000FF270994CA
:027FFE00040479
:00000001FF
